:020000040800F2
:10600000080400207D8400087DF3000881F3000867
:1060100025F1030885F300088DF3000875CF030808
:1060200075CF030875CF030875CF0308F18C0408FA
:1060300091F300086CDE0408818C040813CC04087A
:10604000D580000875CF030875CF030875CF030806
:1060500075CF030875CF030875CF030875CF030804
:1060600075CF030821F201085343040891F1010898
:106070004F43040875CF030875CF03084584000813
:1060800075CF030875CF030875CF030875CF0308D4
:1060900075CF0308DD8D000875CF030875CF0308A1
:1060A00075CF0308298700080987000875CF030802
:1060B00075CF03084D5A0208ED640208D356040850
:1060C000CF5604087D5C0208E9560408D756040838
:1060D000BD640208DB5604082D65020899650208B4
:1060E00075CF030875CF030875CF030875CF030874
:1060F000BDE8030875CF030875CF030875CF030803
:1061000075CF030875CF030875CF030875CF030853
:1061100075CF030875CF030875CF030875CF030843
:1061200075CF030875CF030875CF030875CF030833
:1061300075CF030875CF030875CF030875CF030823
:1061400075CF03085DC9000875CF0308F5CA0408B8
:10615000B946020875CF0308735604087956040837
:1061600075CF030875CF030875CF030875CF0308F3
:10617000F0B5114A114C124E00F00105E3695F07BA
:1061800013D40DB9334213D103EA00078F4207D16C
:106190000B4A1A40002A0CBF00206FF00100F0BD2E
:1061A000013AEBD16FF00200F9E74FF0FF30F6E76C
:1061B0006FF00100F3E700BF8096980000000350E5
:1061C000020001000B4B70B5D96911F480310DD17B
:1061D00001244FF48072084E084DF46020462C6470
:1061E0001A61FFF7C5FF3464EC6070BD6FF0010009
:1061F000FBE700BF000003500010035000200350D5
:106200004FF4803238B50E4B0E4C9A66E56941F674
:10621000713315400122E3630B4B0021DA60022346
:10622000606121202361FFF7A3FF10B92120FFF750
:106230009FFF0122054BDA600DB10023E36338BDF7
:106240000090005000000350001003500020035045
:1062500070B5134C6061E3695B071ED40E4656F8B7
:10626000043B8D18A361AE420BD1042300212120F1
:106270002361FFF77DFF58B9BDE870402120FFF78B
:1062800077BF08210846FFF773FF10B1042323618D
:1062900070BD56F8043BA361E5E74FF0FF30F7E728
:1062A000000003502DE9F84315464FF48032184B97
:1062B00089469A6603F51C33DF690646174041F6A6
:1062C0007132DA63012203F58053DFF84C80DA6023
:1062D00055B9284601220F4BDA601FB10022A3F501
:1062E0000053DA63BDE8F88306F5005404EA0804B5
:1062F000A41BAC4228BF2C46494622463046FFF735
:10630000A7FF0028E6D12644A1442D1BE0E700BFEB
:10631000009000500020035000E0FFFF000000004C
:10632000000000000000000000000000000000006D
:106330002DE9F04F4FF0FD0BC9B09A460DF11B0946
:106340009DF8503108AFCDF80C90CDF808B001970A
:10635000059303890446009383790E46904641884D
:106360008288407813F02CFB054650B10090A3883A
:10637000002062883A4913F043FD284649B0BDE841
:10638000F08F99F800003AF057FB38B12846A388FF
:106390006288344913F034FD8D25EEE75A463946BC
:1063A00099F800003AF01DFB8346002851D0529B1B
:1063B0001BB1BDF84C3198424BD8002399F800909E
:1063C0000793A9F14102012A5FFA8BF123D83846DD
:1063D0000139254ADFF898C05FFA81FE734513DB67
:1063E000059B04210792C3B907AF18221F489FEDF0
:1063F0001A7B02FB060420460A460830394684ED23
:10640000027B3EF01FFC11E010F8011F01335140E8
:106410000CFB01F2E2E7059B33B123464A463846BE
:1064200000960FF0C9F8A8E70829DED9B8F1000FE7
:1064300001D088F80090BAF1000F01D0AAF800B09E
:10644000529B002B99D05A46184608A93EF0FAFBF9
:1064500093E7012591E700BF000000000000000065
:10646000E00A0508150B0508C59D1C8118170020BA
:1064700093010001000000002DE9F04F93B0CDE939
:106480000A32DDE91C530E9353EC102BCDE90801C1
:10649000104619468DED060B1E9E19F00DFC80B1BD
:1064A000DDE906014FF0FF32C54B19F02DFC40B974
:1064B000DDE906014FF0FF326FF4801319F006FC9E
:1064C00070B1DDE908019DED060B0E9B1E96CDE92E
:1064D0001C53DDE90A3213B0BDE8F04F00F088B973
:1064E0000022DDE90601002319F0F0FB002800F08E
:1064F0003381DDE906A303F1004BCBF30A5016F418
:106500008063A0F2FF3008BF06250F9319F002F94F
:106510009BA3D3E9002319F067F99BA3D3E90023D8
:1065200018F0ACFFCBF31304894644F07F5180464A
:106530000022A44B504641F4401118F09DFF94A353
:10654000D3E9002319F050F902460B46404649466C
:1065500018F094FF19F0E2FB044619F0DBF88EA363
:10656000D3E900238046894619F03EF90022964B74
:1065700018F084FF19F0D2FB89A3D3E90023074662
:106580004946404619F030F980463846894619F0A8
:10659000C1F885A3D3E9002319F026F902460B467A
:1065A0004046494618F068FF02460B46CDE90C23E9
:1065B00019F01AF9DDE90C23804689461046194680
:1065C00018F05CFF0022CDE91001804B404649469F
:1065D00019F034FA00227E4B18F050FF02460B46A9
:1065E0004046494619F02AFA00227A4B18F046FF35
:1065F00002460B464046494619F020FADDE90C23D5
:106600008046894600204FF0804118F035FF024651
:106610000B464046494618F031FF02460B46DDE97D
:10662000100119F00BFA07F2FF3700226A4B18F03D
:1066300025FF00223B0519F0D7F852465B468046FD
:10664000894619F061FB002840F08980CDE90C896A
:1066500004F16303C72B34BF0427052731051BD57D
:1066600053A3D3E900235046594619F043FB0028B1
:106670007FD051A3D3E900235046594619F026FB99
:10668000002876D00027A542C6BF2C1B04F1FF3599
:1066900000253C4646F480660E9B9F422CBF4FF07F
:1066A0000008A3EB070816F0020903D0002F18BF5B
:1066B0004FF000083CB1DDE90C235046594619F073
:1066C000BDF982468B46DDE906010022002319F060
:1066D000FDFA10B10BF100439B46DDE9080126F4F9
:1066E0000063CDE90183DDE90A324BEC10AB009584
:1066F00000F07EF802465FB3DDE9091316F0200FC3
:1067000000F10105089E0CBF65204520B047DDE97A
:1067100008010523002205930A23002CCDE902324B
:1067200007F1FF374FEAD473B8BF64422A4601939A
:1067300004970A9B00943DF00DFD0246B9F1000F4D
:1067400006D00B9BC41A0B9B1A190E9BA34245D86B
:10675000104613B0BDE8F08FDDE906ABCDE60022B0
:10676000404649461A4B19F069F9013CCDE90C0144
:106770006EE7002D90D00F9B002B8DD0013D8BE755
:10678000FB799F501344D33FB3C8608B288AC63F20
:1067900061436F63A787D23F71A379094F930A4082
:1067A0001655B5BBB16B0240EF39FAFE422EE63FFB
:1067B0002D431CEBE2361A3F0000000080842E417E
:1067C000FFFFEF7F0000F83F0000E03F00002C409B
:1067D00000002440000018400000F03F2020DDE9C8
:1067E0000913089DA8470134ADE700BF0000000071
:1067F0002DE9F04F5BEC10AB97B0CDE90501DDE979
:106800002057CDE90723504652465B465946229E03
:1068100019F052FA70B90323CDE902760193B04B17
:106820000093DDE90501DDE907233DF0B3FB17B077
:10683000BDE8F08F4FF0FF326FF480135046594699
:1068400019F044FA28B10423CDE902760193A54B4F
:10685000E6E74FF0FF3250465946A34B19F054FA81
:1068600068B1A24A06F00403002B08BF0322A04B24
:106870001CBF13460422CDE902760192D0E75046B0
:1068800093A3D3E90023594619F03EFA38B992A3ED
:10689000D3E900235046594619F018FA68B1DDE9EA
:1068A0000723DDE905014BEC10ABCDE921762095FE
:1068B00017B0BDE8F04FFFF7DFBD002200235046C0
:1068C000594619F003FA002800F09A805B465246B8
:1068D0000020002118F0D0FD012382468B46099349
:1068E00016F4806400F08E80092D40F28E80002422
:1068F00030210EABA5F109020134202C03F8011B55
:10690000A5EB040901D09442F6D15946504619F03E
:1069100005FA784B054603EBC90393ED007B8DED3B
:106920000A7B18F0F7FE02460B465046594618F00F
:10693000A3FDDDE90A2318F057FF02460B46CDE917
:106940000C2319F013FA804618F0D4FE02460B46C9
:10695000DDE90C0118F090FD02460B46CDE90C2351
:106960000022654B19F0D0F9002851D008F1010838
:10697000404618F0BFFE02460B46DDE90A0119F059
:10698000AFF910B14FF000080135B9F1000F50D147
:10699000284618F0BFFE02460B465046594618F0EE
:1069A0006BFD0022544B8046894619F08FF930B1B7
:1069B000002240464946504B19F0A6F910B1E807AD
:1069C00000D501350A210EAB1A19202C0AD095FBEF
:1069D000F1F001FB1055303502F8015B013405463A
:1069E0000028F2D106F00302012A57D1002F55D01A
:1069F000099A12B916F00C0F00D0013F302245E081
:106A000009906DE74FF006097FE7A94600247CE76F
:106A10000022DDE90C01384B19F058F90028B4D1F7
:106A2000B8F1000F02D018F0010FAED008F1010844
:106A3000ABE70A210EAB2344202C0ED0B8FBF1F0BB
:106A400001FB1082B8F1090F02F1300209F1FF39A0
:106A500004F1010403F8012B11D83021A1440EAA3E
:106A6000202CAFD0A14504F101030AD11C4609F145
:106A700058030DEB03092E2309F8203CA2E78046BA
:106A8000DAE7A1541C46EBE71A550134A74205D9B1
:106A9000202CF9D1CDE902760194C1E6202CF9D061
:106AA000099A3AB12D2104F158026A4402F8201CD7
:106AB0000134EFE7710704D504F158022B216A4431
:106AC000F4E73207E6D504F1580220216A44EDE7E5
:106AD0000000000065CDCD410000000065CDCDC1B6
:106AE0009A3405089E340508FFFFEF7F91340508AE
:106AF00096340508A83405080000E03F00000000B7
:106B000070B58EB02C22002103A83EF090F86423CB
:106B10004FF002320893CDE905230B2301218DF8B4
:106B20003430534B8DF810101B88D80700F1988033
:106B3000084644F02FFE0A224E4B4F491A704FF47C
:106B400028734E48ADF812301FF0E4FD4C4C206025
:106B500020B94FF416714B4842F0B0FA0521206875
:106B60003EF071FE20B14FF41A71464842F0A6FA89
:106B7000206818F05BFB444B206819683EF0BBF9B5
:106B80000C2545F03BFA6843099045F037FA684315
:106B90000DEB05010790206819F008FD20B140F2C7
:106BA0007D21384842F08AFA256822F02BFB00222A
:106BB000014628463EF00AFA20B140F27F213148D2
:106BC00042F07CFA40F20353304D314E2B800523C6
:106BD00096F90000AB707F2801D120F0B5F833782A
:106BE000EB7045F00BFA00EB80008000A88045F0C8
:106BF00005FA0023C0004FF0FF31E880AB604FF092
:106C0000FF3019A3D3E9002344F016FF214920687F
:106C10003EF09EF9206802A93EF0BCFE20B14FF480
:106C20002E71184842F04AFA042220680DEB020146
:106C30003EF035F9042804D040F2BB21114842F05F
:106C40003DFA01A901203CF0B5F908F0DBFB012079
:106C500020F006FD37F02CF820F02CFD20F00CF889
:106C60000EB070BDAFF300800A0020FF42030000A9
:106C7000288E00206A960020BDB70408509E002090
:106C8000288400209C7805082C9A00201C84002071
:106C9000B2A1002031B804080348044B834202D05B
:106CA000034B03B11847704710A2002010A2002028
:106CB00000000000064B0749C91A891048BF01317E
:106CC000491003D0044B0BB101481847704700BF6F
:106CD00010A2002010A200200000000010B5064CF9
:106CE000237843B9FFF7D8FF044B13B10448AFF33F
:106CF00000800123237010BD1C8F002000000000C5
:106D00000881050808B5054B1BB105490548AFF3D7
:106D10000080BDE80840FFF7CDBF00BF00000000C5
:106D20000021002008810508A3F5803A704700BFC4
:106D3000174B002B08BF134B9D46FFF7F5FF0021B3
:106D40008B460F461348144A121A3DF070FF0E4B43
:106D5000002B00D098470D4B002B00D09847002007
:106D6000002104000D000D48002802D00C48AFF3AC
:106D7000008019F037FB2000290000F03DFF19F0DA
:106D8000A5F900BF0000080000000000000000009E
:106D900008040020080400200097002000000000E4
:106DA0000000000010B50446024B036000F0F2FA48
:106DB000204610BD54DB04081FB51A4835F0E4F82E
:106DC00020B905B05DF804EB34F024BE0DF10F03DB
:106DD0000DF10E020DF10D01124834F0BCFF9DF8CB
:106DE0000F309DF80D2000930F499DF80E300F488D
:106DF00035F075FC9DF80D101620C1F1FF0135F03E
:106E000086FF9DF80E101720C1F1FF0135F07FFFBE
:106E10009DF80F101820C1F1FF0135F078FF05B083
:106E20005DF804FB2421002068D9040858230020C1
:106E30002DE9F843534C23780BBB534834F0FDFE47
:106E4000E8B1012351495248237035F0B6FD51494C
:106E50004F4835F0B2FD4C4834F0FDFE0A220146A1
:106E60004B4835F014FE4C49494835F0A6FD4648DC
:106E700034F0F3FE10220146454835F0F1FD474855
:106E800035F082F8464B04461A7840B982B1187042
:106E900034F0C0FD43493E4835F0A0FD08E03AB962
:106EA000012241493A481A7035F098FDFFF784FFF6
:106EB0003E4DD5E8AF3F13F0010FDFF808810BD14D
:106EC00028463DF095FD38B1344834F013FF88F87A
:106ED000000028463DF098FD354DD5E8AF3F13F052
:106EE000010F344F0AD128463DF082FD30B12B48C6
:106EF00034F022FF387028463DF086FD2E4DD5E84F
:106F0000AF3F13F0010F2D4E0AD128463DF070FD22
:106F100030B1224834F0EEFF307028463DF074FD69
:106F20001E4834F0E7FE81461C4834F005FF054654
:106F30001A4834F0DFFF98F8002003464A4505D18F
:106F40003A78AA4202D13278824206D088F800907C
:106F50003D7033700CB1FFF72FFF192035F012FF91
:106F6000002814BF01250025154C04D1237813B146
:106F70000A4835F00EF825703220BDE8F84335F0A8
:106F8000BDBE00BF218F0020238F002095D90408AB
:106F900058230020B3D90408BDD9040824210020B7
:106FA000208F0020D3D90408CBD904082021002049
:106FB0001C2100201E8F0020182100201D8F002082
:106FC00074A100201F8F002010B5054C204600F052
:106FD000FFF82046BDE81040024A03493DF09ABC44
:106FE000242100206C990020A56D000808B54FF4FD
:106FF000E131344835F053FB3349324835F0EEFC8B
:107000000121162035F0B2FE0121172035F0AEFE29
:107010000121182035F0AAFE34F0FCFC19200221D1
:1070200035F0A4FE192035F0ADFE78B92749254882
:1070300035F0D4FC2649234835F0D0FC192035F032
:10704000A1FE002838D0234800F0A6F822492148A4
:1070500034F05BFD21491F4834F06FFD72211D485B
:1070600034F083FD1B4834F0A6FD1D4834F032FE99
:1070700001211B4834F083FF6421194834F035FFA7
:107080006421174834F045FE0021154834F03CFED9
:10709000FF2313481A46194634F0DCFE0D4834F03D
:1070A000D3FD68B90F49074835F098FCBDE80840A2
:1070B0000D49044835F092BC642035F01FFEBDE751
:1070C00008BD00BF58230020DCD90408F3D9040808
:1070D00008DA0408238F002025DA040832DA0408CD
:1070E0002421002049DA040864DA040813B5064CA8
:1070F000217839B9FF23054A0093054809F044FA7D
:107100000123237002B010BD228F002047BA03086C
:107110003421002008B540B1FFF7E8FFBDE8084082
:10712000FA22FF21014838F067B808BD3421002059
:10713000034B93F82030012B14BF0220032070472B
:10714000238F0020024A026000224260704700BF85
:10715000B8DA040810B5044634F023FD15F018FB26
:10716000064B93F82030002B0CBF8A2388230CB9E0
:1071700043F00403024A137010BD00BF238F0020A8
:1071800057950020152804D1024B93F82100FFF7F2
:10719000E1BF7047238F002008B534F060FD002167
:1071A000084615F06DFB044B186836F02EFABDE862
:1071B000084037F085BB00BF189A0020014834F022
:1071C00094BC00BF238F00200048704732DA0408C7
:1071D00010B5044600F076F8024B204623600023E9
:1071E000637310BDF4DA0408C1EB012C40F2FA51CC
:1071F000F0B5FE2441432B487F31814298BFB1FB5B
:10720000F4F14FF0FF078CBF002189B2B1FBF7F01A
:107210000CF17F0C1FFA8CFCBCFBF4FCC6B251FADB
:1072200080F0C0B25FFA8CFC391A00FB0CF50CFB45
:1072300001F17F357F31B5FBF7F5B1FBF7F1A7EB36
:107240000C047D1B791A5443554351437F347F35D9
:107250007F31B4FBF7F4B5FBF7F5B1FBF7F1E4B21E
:10726000EDB2C9B2042E1AD8DFE806F005030B1000
:10727000140011462A461A70059B1970069B1C7053
:10728000F0BD20460C4611460246F4E7204629464A
:107290001446F9E7204614460A460146EBE7214624
:1072A0002C46E8E70BEE0500004870470CDB0408AD
:1072B00010B50446024B036000F06CF8204610BD88
:1072C00054DB040810B5044600F072F8014B204668
:1072D000236010BD54DB040810B540B1074A0023F9
:1072E000114652F8044B1CB941F82300012010BD8F
:1072F00001331F2BF5D10020F9E700BF54210020F6
:1073000010B550B1084A0023114652F8044B84428C
:1073100004D10022012041F8232010BD01331F2B8E
:10732000F3D10020F9E700BF54210020F8B5094D42
:10733000064600242F4655F8040B30B135F048F9C5
:10734000B04202D157F82400F8BD01341F2CF2D10D
:107350000020F9E754210020004870476CDB040846
:10736000037B10B5044693B1806835F031F90146CE
:10737000074834F09AFCA068FFF7C2FFA06810B17C
:1073800003685B6898470023C4E90133237310BD89
:10739000238F002010B50446044B0360FFF7E0FF85
:1073A000204634F0A1FB204610BD00BFA4DB04083A
:1073B00010B50446FFF7C6FE034B204623600023AA
:1073C000A360237310BD00BFA4DB040810B50446FE
:1073D000054834F04FFC014620B12046BDE810407E
:1073E00034F0A4BD10BD00BF238F002010B50446AB
:1073F000024B036035F0E8F8204610BD50DC04086D
:10740000B5EEC00AF1EE10FA12D9F7EE007AB4EE3A
:10741000E70AF1EE10FA0DDA9FED087AF6EE007A3F
:10742000E0EE077AFCEEE77A17EE903A98B27047F2
:10743000002070474FF6FF70704700BF00FF7F4786
:10744000FE2928BFFE2107EE901AFE289FED2A6A2A
:1074500028BFFE20F8EE677A87EE865A07EE900A7C
:10746000F1EE086AB8EE677A27EE267AC7EE067A5A
:10747000F4EE667A9FED217AF1EE10FA67FE277A34
:10748000FDEEE75AB8EEE57A37EEC77AF7EE007A06
:10749000B0EE676A15EE900AA5EE476A37EEC77A36
:1074A00077EEC56AE7EE457A04281ED8DFE800F0DB
:1074B000210703111800B0EE666AF0EE676AF7EE76
:1074C000007A82ED006AC3ED007A009BC3ED006A8A
:1074D0007047F0EE467AB0EE666AF7EE006AF0E7C3
:1074E000B0EE676AF0EE667AF7E7F0EE667AF0EEF5
:1074F000466AB7EE006AE4E700007E430000000041
:10750000B4EEE00AF1EE10FA54BFF0EE406AF0EE8D
:10751000606AF4EE416AF1EE10FAB4EEE00A48BF98
:10752000F0EE416AF1EE10FA30FE807AB4EE417A64
:10753000F1EE10FAF5EEC06A31FE077AF1EE10FABC
:1075400082B04BD936EEC77AB5EEC07AF1EE10FABA
:1075500044D9F4EE406AF1EE10FAB1EE085A28D19F
:1075600070EEC10AC0EE877AF5EEC07AF1EE10FA3D
:1075700001D577EE857ADFED1B5A67EEA57A87EEA7
:10758000856AF6EE007A36EE276ABCEEC66A8DEDA5
:10759000016A87EE266AE6EE257AFCEEE77A9DF828
:1075A0000430CDED017A9DF8042003700A7002B01A
:1075B0007047F4EE606AF1EE10FA09BF31EE401A3E
:1075C00030EE600AC1EE077AB0EE006A1CBFC0EE72
:1075D000077AB1EE006A77EE867ACCE700231A4686
:1075E000E3E700BF00007E4330B587B01C4605AB23
:1075F0000093154604AB03AAFFF722FF9FED220A72
:10760000DDED047A9DED036A27EE800A9FED1F7A77
:10761000DFED1F6AA6EE070A9DED057AA7EE260AA2
:10762000DFED1C6ADFED1C5A67EEA66AE6EE256AFE
:10763000DFED1A5AE7EE256ADFED195A67EEA57AF3
:10764000DFED185AE6EE257A9FED176AE7EE067A27
:1076500030EE266A36EE276AB5EEC06AF1EE10FA11
:107660000CD980EE060AFFF7CBFE86EE860A0146AD
:10767000FFF7C6FE2980208007B030BD45F20D011E
:1076800045F23940F6E700BF5917B73E1826D33EFA
:10769000FED4383E5917373FD0B3593E98DD933D5D
:1076A000211FF43D091B9E3CF853733F06EE901AD0
:1076B0009FED376AF8EE666A86EE867AB5EEC07A96
:1076C000F1EE10FA07EE900A1946104603D800238F
:1076D00003700B707047F8EE677AC7EE866AF7EEB4
:1076E000007A77EEE67A77EEC77A86EE876A9FEDC4
:1076F000290AC7EE876ADFED287AA6EE270ADFEDB2
:10770000277ADFED270AA6EEE70ADFED267AE6EE16
:10771000270ADFED257AB5EEC00AE6EEA70A9FED4F
:10772000231ADFED237AF1EE10FAA6EE271AF5EE12
:10773000C00ADFED207A48BF9FED1F0AA6EEA71A08
:10774000F1EE10FAB5EEC01A48BFDFED1B0AF1EEFC
:1077500010FAB4EEE00A48BF9FED171AF1EE10FAE6
:1077600054BFF0EE407AF0EE607AB4EE671AF1EEB4
:1077700010FA71FE277AF5EEC07AF1EE10FAA6D96A
:1077800081EE271AC0EEA70A80EE270AFFF7B8BEDF
:1077900000FF7F47F8C2C4BFFE654F408048FF3EF0
:1077A000371AF03FD50978BFE7FB293D60E550BEA9
:1077B000AF25643DC74B873F0000000010B504466D
:1077C00000F028F800210D4B08466186616384F8BB
:1077D000381004F13402236004F13603FFF704FF8C
:1077E000204634F012FC204634F052FC204634F09F
:1077F00070FC204634F07CFC204610BDE4DB04081D
:1078000010B50446024B036034F0DEFE204610BD86
:1078100050DC040810B5044600F014F8034B204671
:107820002360002384F8313010BD00BF1CDC040845
:1078300010B50446024B036034F0C6FE204610BD6E
:1078400050DC040810B5044600F03CF8034B204619
:107850002360002384F8303010BD00BF50DC0408E2
:1078600038B5064D0446286808B9002038BD34F004
:10787000AFFEA042F9D12868F8E700BFD021002070
:107880002B2812D80F2815D91038C3B2012000FABE
:1078900003F313F0013F10D1084A13420CD1084AF8
:1078A000134208BF002080007047A0F1E203584255
:1078B0005841F8E70020704702207047000002029C
:1078C0000000080838B500250446074B80F825203D
:1078D0000360C5840585C562202204303DF06AF945
:1078E00084F82450204638BD7CDC0408002302467E
:1078F0001946014804F074BD00C0055010B50024BD
:107900000E4B186834F080FE0D4B0122C3F820475F
:107910000421C3F838470220C3F83047C3F828478A
:10792000C3F82C47234604F051FB2346BDE8104022
:1079300001220521022004F049BB00BFDC21002008
:1079400000C0035002460021014804F0A7B900BF5F
:107950000000015B10B500240E4B186834F054FE93
:107960000D4B2046C3F894440122C3F8AC440421D3
:10797000C3F8A444C3F89C44C3F8A044234604F0CD
:1079800025FB23462046BDE810400122052104F0D6
:107990001DBB00BFD421002000C00350084B1A6853
:1079A000084B1A60084B1A68084B1A60084B1A6893
:1079B000084B1A60084B1A68084B1A60704700BFE2
:1079C000909D0020E0210020A09D0020DC210020CF
:1079D0007C9D0020D82100208C9D0020D4210020F7
:1079E00008B50120024945F001FE024B186008BDB0
:1079F000E42100203422002000230448044A0549E1
:107A0000C0E9000083603CF085BF00BF3822002041
:107A10006C9900202DC603082DE9F04100259846F9
:107A20004FF47A73C0E90153184B04460F461646CB
:107A30002946802240F8103B3DF0F9F84FF4E1333D
:107A4000C4F89050C4F80C31C4F89450C4F89C5059
:107A5000C4F8985084F8085184F8105104F1A0013A
:107A6000012045F0C3FD069BC4F89C00C4F8F43027
:107A7000079B2046C4F8F830089BC4E94076C4F858
:107A8000F080C4F8FC30BDE8F08100BFFCDC0408E5
:107A90001FB50F4B0F4A02930F4B10490193104B28
:107AA000104800931268104B0968FFF7B5FF0F4BA1
:107AB0000F4A02930F4B10490193104B104800934B
:107AC0001268104B0968FFF7A7FF05B05DF804FBCB
:107AD0006DC60308DC210020FD780008E0210020AD
:107AE0001FC6030858230020ED780008DDC60308F0
:107AF000D421002055790008D821002023C603088E
:107B00004422002045790008014834F075BE00BFCA
:107B10006C24002010B50446044B0175036010224C
:107B2000002104303DF083F8204610BD74DD0408C8
:107B300030B5074D8374056000259DF80C30057540
:107B400045608560C56001744274C37430BD00BF78
:107B500074DD040807B501210648FFF7DBFF0023A9
:107B600005481A4619460093FFF7E2FF03B05DF897
:107B700004FB00BF08250020F024002008B50249BE
:107B800034F00BFF08BD00BF1AE4040810B5074924
:107B900043234222064834F07CFFBDE810404523D1
:107BA0004422044801F5804134F073BF004002597B
:107BB000482500202025002008B5FFF717FA094DB9
:107BC000094CFFF735F9284634F0A3FD284634F078
:107BD00007FE204634F09DFD204634F001FE45F0BE
:107BE0003BF9EEE75823002044220020014B18788F
:107BF000704700BF458F00201FB504F053FB0124E0
:107C00001F4B186035F0A0FF37F0AAFA34F00BFDD7
:107C10001C4B1C7034F04EFFFFF7E2FE1A4B4FF482
:107C200000620293194B1A49CDE900431948002319
:107C300045F086FDF8B9184C1849206836F07DFEED
:107C40001749206836F079FE35F0A7F835F0A6F828
:107C5000144B154A009315494223206836F06DFEF7
:107C60001349144A206836F068FE1349206836F03C
:107C700064FE00BEFDE737F080FA002004B010BDBE
:107C800070250020458F002074250020D425002079
:107C900094DD0408B97B0008704600201BE404084A
:107CA000A1DD040813DE0408A6DD040807DE0408CD
:107CB00034DE040818DE04084CDE0408A0F13203A8
:107CC000402B10B5044608D934F0AEFCA04292BF58
:107CD0004FF0FF34024B53F82440204610BD00BF44
:107CE0007099002038B54FF480730381082380F821
:107CF0006430FF23002283664FF47A7304460360E6
:107D0000C2600266027100F16C0300F1AC017220E6
:107D10000C4D10338B4207D104F11001012045F0C6
:107D200065FCE060204638BD43F8100C43F8085C61
:107D300003F8042C03F8032C03F8022C03F8012C9D
:107D4000E7E700BF008004500148FFF7CBBF00BF4A
:107D5000D44500200A460146014834F066BF00BF02
:107D6000D445002038B50446FFF740FF90B1712C90
:107D700011D8204634F09FFE0546204634F0A8FE78
:107D80001422302313FB0523044A9B5823FA00F0E6
:107D900000F0010038BD0020FCE700BF30C00350F8
:107DA000012208B5074B1A700022074B1A700422F3
:107DB000064B1A701F22064B1A7006F001FB054B8A
:107DC000186008BD77A10020468F002076A1002012
:107DD00075A100207046002008B5034836F062FD0A
:107DE000BDE808403CF063BA80DF0408014836F083
:107DF00059BD00BF80DF04084FF000639B6A03F1A8
:107E00007842B2F5C04F03D21968064A914203D0B6
:107E10000023037083607047012202709A689B6997
:107E20004260F7E707B0CD5E73B54F4B04461A7852
:107E30001AB102221A7002B070BDCDE900220028EA
:107E4000F9D001261E7044F0BDFC484D484B186027
:107E50001BF032FB2B785BB902F040FC40B945487F
:107E60000823454A4549006802F01EFA00B92E7001
:107E7000434B5A6E62619B6E424AA3614FF480434A
:107E80009366414B5968E16140499960196E2160E0
:107E9000596E6160D3F87011A160196CE160596C82
:107EA00021613B49086C1864496C59640121516691
:107EB0001B6E9C0441D5374AD368D807FCD4364B97
:107EC0001A68531C3ED04FF480139340334A136614
:107ED0004FF400730426314C2666236634F08BFF82
:107EE00001300DD034F087FF40F20113984207D0E3
:107EF0004FF4005323664FF480432366C4F8706147
:107F00000823264C684623664FF4805323664FF0BF
:107F1000006323664FF4002301A9636634F04FFF2A
:107F2000009B2366019B63662B78002B83D0124B4A
:107F30001A6822665B6863667DE7194AD368D907C9
:107F4000FCD4BCE7174B1B78002BC1D14FF4007257
:107F50000C4B5A6603F5A6235B68002BB8D14FF48F
:107F600080120E4B1A66B3E7488F0020498F00201D
:107F700094460020189A00209846002000710800BE
:107F800000800050009000500080004455CEAC00AE
:107F900000C0005400000440E0990020009000441C
:107FA00000000450478F002070B5224D04462E7803
:107FB000012E02D001232B7070BD0028FCD034F0BC
:107FC0001AFF01300BD034F016FF40F20113984233
:107FD00005D0194B194A5E66D368DE07FCD42268C7
:107FE000174B1A6662685A66A268C3F87021E26885
:107FF0001A6422695A64E269D00744BF00229A6079
:10800000104B1A68013207D10F4A127822B90F4972
:108010004968C90748BF1A6062690D4B5A66A26970
:108020009A661BF051FA0B4B186844F0C6FB00230C
:10803000C1E700BF488F00200090004000000440CE
:1080400000800044E0990020478F002000C00550C8
:108050000080005094460020F8B54FF00066B36AE7
:1080600003F17842B2F5C04F26D21A68144B9A42F7
:1080700022D1144D2C7814F0FD0402D000242046A7
:10808000F8BD4FF480371048FFF7CEFE204606F0CB
:1080900089F90E4B2046DF6006F068F90C4B1F6132
:1080A000B36ADB69984704460748FFF77DFF002C59
:1080B000E5D101232B70E1E74FF48174DFE700BFC6
:1080C00007B0CD5E478F00207446002000A000441A
:1080D0000090004413B5204B1B7803B9FEE7002342
:1080E0001E4CCDE900336A4608231D49206802F082
:1080F000DBF8F8B91B4AD2F84031D2F840211F2BE7
:108100004FF0010311D9203A9340019A1A4301928A
:1081100008236A461249206802F082F8124B134A7B
:108120001A6036F0CDFB02B010BD9340009A1A439E
:108130000092EDE72D28F1D10A4AD2F84031D2F869
:1081400040211F2B4FF0010385BF203A93409340FD
:10815000019398BF0093DBE7488F0020189A002016
:108160000071080000800044000000200B020FF0A6
:10817000BFF34F8F0549064BCA6802F4E062134310
:10818000CB60BFF34F8F00BFFDE700BF00ED00E005
:108190000400FA05014834F0D3BE00BFA046002019
:1081A0002DE9F0410E469046054608B303291FD835
:1081B000F2B144F007FB07460E4B1C686CB9012373
:1081C00029460C482B752E71C5F8088034F0BBFE8B
:1081D000384644F0F2FA204606E02379B34205D14E
:1081E000384644F0EAFA2E20BDE8F0812468E5E73D
:1081F0002120F9E7A046002003282DE9F341044699
:108200008846164635D8002A33D044F0DBFA0746B4
:10821000194B1D683DB92D24384644F0CEFA20464E
:1082200002B0BDE8F0812B79A34214D12969A1B92C
:108230000C2001AA019136F02BFF04460028EBD157
:10824000019905F11000C1E9018634F07CFE2B7B19
:1082500001332B7309E02D68DCE78B689E4206D161
:108260004B68019143EA08034B600024D4E7096896
:10827000DDE72124D3E700BFA0460020194608B55A
:108280001346002242F026FB0430042896BF024B1E
:108290000120185C08BD00BFBCDE04084FF0BA42E4
:1082A0000123054802F580514B60086203490968C3
:1082B000D160034A1370704701000C1FE49900203D
:1082C0004A8F00204FF0BA41074BCA681A60012359
:1082D000064A53604B6813F00203FBD14FF0FF31A5
:1082E0001162034A13707047E49900200020005D7A
:1082F0004A8F00204FF0BA42D369126A10B513407A
:1083000013F0F8501EBF0120114A1070DC070ED583
:108310004FF0BA410A695007FCD50E4A4C69106803
:10832000204410608869516801440120516059035C
:1083300041BF08490A6802F180720A601A0341BF0E
:1083400004494A6802F180724A60034AD36110BD51
:108350004B8F0020A44600200020005D0023044A2B
:1083600004491370044A05481360054A00F034B804
:108370004B8F0020C5820008AC4600209D8200087B
:10838000F58200088B1E012B03D8044B1B6823B118
:108390001847012901D8024BF8E77047C44600206E
:1083A000C846002010B544F000FA04460021012020
:1083B00040F032FF204644F0F3F90022014B1A70DE
:1083C00010BD00BF4C8F0020024B03C883E80300A0
:1083D00000207047B846002038B5114C2378E3B927
:1083E000104B114D1960114B28601A604FF08042FC
:1083F0000F4B10489A66FFF7E7FF0F2005F0B6FF16
:108400002B6803B198470C480C4907F091FB0123F6
:10841000002023700A4B187038BD1220FCE700BF03
:108420004D8F0020C4460020C8460020C0460020D2
:1084300000900050B8460020B0460020C4DE04087A
:108440004C8F002008B5054B1B682BB1984718B11D
:10845000BDE80840FFF7A6BF08BD00BFC04600202A
:108460000348044A0449121A921034F084BD00BF34
:108470007061000830630008A097002008B500F084
:108480002FF8FFF7EDFF124B12498B4212D3002059
:10849000114B12498B4218D3FEF74AFC186850F86A
:1084A0002240586840F82240013298688242F5D351
:1084B0000C33EAE70022F8E71C6844F82200013296
:1084C0005C68A242F8D30833E4E70022F8E700BF73
:1084D000108105081C8105081C8105081C81050800
:1084E0004FF48041124B134A70B59A60D3F888203C
:1084F000114D42F47002C3F88820104A05F500546B
:1085000091664FF0FF3222660D4A62660222C3F87E
:10851000D020BFF34F8FBFF36F8F4FF44036002052
:1085200005F040FF0020E66005F020FF2E6170BDE1
:1085300000ED00E000600008008000440090005062
:10854000F7FF3700014B1860704700BFEC9900201F
:10855000054B1860054B1B6F03F00703032B01D17C
:1085600040F008BC704700BFF49900200080005024
:108570002DE9F04104460C254FF00108124E0CB3D2
:1085800014F001000BD0002024F0010405FB006270
:108590005768002FF3D09168C0B2B847EFE7224682
:1085A000013020284FEA520201D0D307F8D508FA4B
:1085B00000F20F2824EA0204E8D9103805FB006213
:1085C000B432E5E7BDE8F081CC46002008B50C48A0
:1085D00036F068F9192005F0D7FE28B1192005F00A
:1085E000E1FE192005F0C2FE1A2005F0CDFE28B1EB
:1085F0001A2005F0D7FE1A2005F0B8FE002008BDAD
:1086000080DF04082DE9F0410E469046054618B378
:108610000F2923D80378E3B1012B03D0022B18D004
:10862000032B1BD13F236A78D340DB0716D50D4BB4
:10863000D3F81043A4B944F0C5F80746424628468B
:10864000314603F095FF384644F0B7F82046BDE8C0
:10865000F08140F2FF33E6E72224F7E72124F5E733
:108660000224F3E700C0035010B50446E8B10378D4
:10867000C3B1012B03D0022B14D0032B17D13F23FE
:108680006278D340DB0712D544F09CF8012263786E
:1086900021789A4030235943064B5A5044F08DF8C4
:1086A000002010BD40F2FF33EAE72220F9E7212045
:1086B000F7E700BF40D0035010B50446E8B1037897
:1086C000C3B1012B03D0022B14D0032B17D13F23AE
:1086D0006278D340DB0712D544F074F80122637846
:1086E00021789A4030235943064B5A5044F065F89C
:1086F000002010BD40F2FF33EAE72220F9E72120F5
:10870000F7E700BF40E0035008B503F027FF054B33
:1087100000F0553020F05020C3F82004BDE8084098
:10872000FFF726BF00E0035008B503F017FF054B25
:1087300000F0AA3020F0A020C3F82004BDE80840D3
:10874000FFF716BF00E00350144B98421AD008D828
:10875000A3F5004398420CD003F5804398420DD016
:1087600070470F4B984211D003F58043984211D0C7
:1087700070470C4B0B600C4B136070470B4B0B603E
:108780000B4BF9E70B4B0B600B4BF5E70B4B0B60FF
:108790000B4BF1E70B4B0B600B4BEDE7000005506B
:1087A0000040055074DF0408B8DF040870DF0408D7
:1087B000ACDF04086CDF0408A0DF040868DF0408ED
:1087C00094DF040864DF040888DF040830B5044639
:1087D0000D468DB002AA01A90068FFF7B5FF019808
:1087E00036F060F8384836F05DF863792A798DF80C
:1087F0000030003AA37918BF0122042168468DF8A1
:108800000130FFF7FFFE0D22002104A83CF00FFA13
:1088100002238DF811302D4B217905932B79206897
:108820005A1E5342534104AA8DF81A3035F0DAF932
:108830002268274B9A423ED003F580439A423CD0AF
:1088400003F580439A423AD003F580439A4238D0E8
:1088500020482149A3F5BC33A3F5CE73824208BF5B
:108860000B46A0796279217942EA004243F821203F
:10887000029B03A9187944F035F82A68039B256800
:10888000B3FBF2F3013B2A6BEB612379002405EB88
:1088900043132A6B21460F229C660DF121003CF008
:1088A000C6F90123284608A98DF8203035F059F97A
:1088B00020460DB030BD094BD3E7094BD1E7094B3A
:1088C000CFE7094BCDE700BF80DF040800010300BC
:1088D000008004500080055004C7035084C6035034
:1088E000A4C60350C4C60350E4C603500123017953
:1088F0000268114803FA01F1824216D000F5804067
:1089000082420DD00D4B9A4211D003F580439A421A
:108910000FD003F580439A4214BF4FF0FF33042376
:10892000074AB4335B01D15070470023F8E70223B4
:10893000F6E70323F4E700BF008004500000055071
:1089400000C00350012301790268114803FA01F1C4
:10895000824217D000F5804082420DD00D4B9A42E2
:1089600012D003F580439A4210D003F580439A4217
:1089700014BF4FF0FF330423074A03F59A735B01DA
:10898000D15070470023F7E70223F5E70323F3E70D
:10899000008004500000055000C0035030B504466C
:1089A00085B0FFF7CFFF20681D4B98422FD003F50D
:1089B000804398422DD003F5804398422BD003F595
:1089C0008043984229D01749174AA3F5BC33FC3B92
:1089D000884218BF13460025227943F8225003F03D
:1089E000BBFC63792A468DF80430A379294601A897
:1089F0008DF80530FFF706FE206803AA02A9FFF7ED
:108A0000A3FE029835F051FF284605B030BD074B54
:108A1000E1E7074BDFE7074BDDE7074BDBE700BF8D
:108A2000008004500080055064C6035084C6035083
:108A3000A4C60350C4C60350E4C603502DE9F04F4A
:108A40009A46564B85B01B7806460F461546DDF80C
:108A50003C909DF844B0DDF85080002B00F09780EA
:108A6000072A00F296800E9B002B00F09280B9F14D
:108A7000000F00F08E80129BB3F5006F00F3898029
:108A8000012803D1109B002B00F08380444B03EBA3
:108A900005131B7B002B7ED0424C10220021684620
:108AA0003CF0C5F804EB45141022A7BB394620461C
:108AB0003CF0BDF843F210036380BBF1000F03D11B
:108AC000E37843F00303E370364A0E9B02EB451C48
:108AD000CCE90193129B6901581E9DF84C30C0F3FC
:108AE0000A0003F003039B0643EA001E53582E4876
:108AF000012E00EA03004EEA0003CDF800A0535017
:108B000017D0B8F1000F2ED19CF8023068F304138F
:108B10008CF8023027E0002120463CF088F84FF422
:108B200044736380BBF1000FCED1E37843F0300390
:108B3000C9E713230CF1100ECCF80C309CE80F00A1
:108B40008EE80F006FF00301DCF81C20109B61F32E
:108B50009F02012FCCF81C20CCF8143003D1CCF8A4
:108B60001890CCF8043000270D4A290102EB0513B8
:108B700042F80180159A28465A60694622469F604D
:108B80005E7303F0B7FA384605B0BDE8F08F0748CA
:108B9000FAE70748F8E70748F6E700BF4E8F0020DE
:108BA00034490020344800200F80FFF3028000F099
:108BB000018000F0078000F038B5124B05461B78A5
:108BC000DBB1E0B143F0FEFD0F4A00231146147BF8
:108BD00054B92B6001251A0101EB03131D738C504E
:108BE00043F0EBFD204638BD0133082B02F11002A3
:108BF000EDD143F0E2FD0548F5E70548F3E7054808
:108C0000F1E700BF4E8F002034490020048000F0BF
:108C1000028000F0018000F038B543F0D3FD00235E
:108C200005460B4A147B6CB90133082B02F1100284
:108C3000F8D103F00BFA074B28461C7043F0BDFD3A
:108C4000204603E0284643F0B8FD034838BD00BF86
:108C5000344900204E8F0020058000F00D4B10B5E8
:108C60001B78044693B1072812D843F0ABFD0A4B9A
:108C700003EB04131A7B2AB100241C7343F09DFDFF
:108C8000204610BD43F099FD0448FAE70448F8E790
:108C90000448F6E74E8F002034490020068000F09B
:108CA000028000F0018000F0154B13B51868002316
:108CB00001908DF8043043F085FD124B1C7824B1EF
:108CC00043F07BFD104802B010BD01221A7043F042
:108CD00074FD0E4B01A81C731C7783F82C4083F89D
:108CE0003C4083F84C4083F85C4083F86C4083F848
:108CF0007C4008238DF8073003F0CCF92046E2E7EA
:108D0000CCDE04084E8F0020038000F034490020A0
:108D1000F8B50D4D2D7885B1072810DC0B4D0601F7
:108D200005EB0014277B67B1AB510025069BA560BE
:108D3000636003F0DFF92846F8BD0548FCE7054805
:108D4000FAE70548F8E700BF4E8F002034490020BD
:108D5000028000F0018000F0078000F00A4A08B5A8
:108D600012785AB107280BD8084A02EB00131B7B74
:108D700043B1002103F080F9002008BD0448FCE75E
:108D80000448FAE70448F8E74E8F002034490020F1
:108D9000028000F0018000F0078000F00A4A08B568
:108DA00012785AB107280BD8084A02EB00131B7B34
:108DB00043B1012103F060F9002008BD0448FCE73D
:108DC0000448FAE70448F8E74E8F002034490020B1
:108DD000028000F0018000F0078000F0184B2DE9C0
:108DE000F0411F6D5B6D1F4000D5FEE70126002599
:108DF000144CDFF85880374218D02368C8F8506008
:108E0000A3B1A168284601316268A1609847637BDD
:108E1000012B0BD150B90C4B03EB45131A7B60F3BC
:108E200041021A731A7F60F341021A770135082D47
:108E30004FEA460604F11004DDD1BDE8F08100BF21
:108E40000000045034490020344800200020045021
:108E50002DE9F04F144606460D469B46C36B87B07E
:108E600001225B6902A960689847F36B01225B6984
:108E700003A92846984702A834F0C3FC074648B126
:108E80000023A37563754FF0FF33A360002007B084
:108E9000BDE8F08F03A834F0C1FC0123A375237E45
:108EA00004EBC303DD611F846368AB420ED1206015
:108EB00003A834F0D5FC4FF0FF332075A360237D69
:108EC000043B022B26D80023A375DFE723681A1A78
:108ED00053425341A37503A834F0C2FC237D83425F
:108EE00018BFA77503A834F09DFC074602A834F00C
:108EF00099FC874218BF002303A818BFA37534F05C
:108F000099FC074602A834F095FC87421CBF002359
:108F1000A375D4E703A834F085FC80B1F36B02227B
:108F200028465B6904A9984704A834F08AFC0346E4
:108F3000207D032839D8DFE800F03838040903A879
:108F4000F3E7CC22237E04EBC3031A8401F03EFC3A
:108F5000109B187003A8277E34F058FC04EBC70759
:108F600087F82200237E03A804EBC303B3F8209004
:108F700093F8227034F056FC804603A834F05AFC73
:108F80008246B8F1000F15D0F36B022228465B69C8
:108F900004A9984704A834F019FC6075637D6BB987
:108FA0000023A3754FF0000838E0227E04EBC202D4
:108FB0001384CBE703A834F0F4FBEEE794F81680B3
:108FC000B8F1000FEED0B9F1000F09D1DFB10123E4
:108FD000627EE375002A44D19F4218D1677614E07F
:108FE000736C05EB0A02594285EA020008421CBF75
:108FF0000021A175591E0A409B1A9945D0D8A37D1E
:10900000002BE3D1CEE7E37D43B94FF000084B4698
:1090100052462946304634F017F9A060A27D12B1BD
:1090200023694B4423611449237E097899421ED950
:1090300001332376BBF1000F1BD0D2B1E37DC3B166
:10904000B8F1000F15D1032F13D0A1684B1C10D01D
:10905000109B2246009330460123FFF7F9FEA075CE
:1090600007E0012FDAD0032F08BFA376CDE7002356
:10907000A375A07D0BE700BFF0DE04082DE9F04FDB
:109080000E46984600238BB004464FF0FF31104641
:1090900017468DF8133001F083FBB6F5801F3BD3E4
:1090A000B21C53D1E56A6B1C57D12046616A34F07B
:1090B00011F80546B31C18BF0123DFF81091019386
:1090C000636A626C0293236805A902FB053AE36BAD
:1090D00005225B695046984705A834F02DFC34F012
:1090E00050FC504634F058FC4FF0000B82460146CD
:1090F0004B1C05D0636C81EA0A025B42134232D0FA
:109100002946204633F0E6FF029BAB424DD0BBF12F
:10911000000F4DD10546D3E7314605AA04F10800FA
:1091200034F0BDFA0146481C10D0384601F038FB37
:109130000122394620460DF1130334F0D7F828B147
:109140009DF8133088F80030002003E0237C002BCA
:10915000A8D12D200BB0BDE8F08F2368ED1A636C09
:10916000B5FBF3F5A6E7484601F01AFB0DF1130332
:1091700049462046019A34F0B9F8034690B1B21C32
:1091800003D0D9F80020B2420CD19DF813200393EC
:109190000D4B88F8002049461A6838463BF052FDCE
:1091A000039B9B46D9F80810A2E7BBF1000FD0D073
:1091B000B6F5801FC8D2314698F800307A6804F1BD
:1091C000080001F01BFABFE7ECDE0408285000207D
:1091D0002DE9F3410446174698460E46194D816A1B
:1091E000E36A8B422AD04B1C18E0284601F0D8FADB
:1091F0000122294620460DF1070334F077F830B1FB
:109200004346294620469DF80720B847B0B1A968D3
:109210004A1C05D0012E0AD0E36A9942E5D10DE03F
:109220006968204633F0E3FF012E0146D8D16B6810
:1092300081EA0302636C5B421A42D1D002B0BDE8FE
:10924000F08100BFFC4F00202DE9F041036B9046F8
:10925000826B07689A4288BF8363426C436A90B00E
:1092600002FB0377C36B0E46052201A95B69044626
:109270003846984701A834F05FFB0128014630705A
:1092800057D0656CE26B2368606AD2F814C005FBA6
:109290000030052206A9E04706A834F04DFB01285E
:1092A0004FF0000523D0D4E90A3201219342CDE9E1
:1092B0000B458DF834800E958DF83C102AD1194657
:1092C000204633F094FF236B626C14339B1AE062E8
:1092D00023630C9B53B99DF83C303BB1626A616CCF
:1092E0002368E06B01FB023134F0DEFA0C9DE36B86
:1092F00005225B6901A93846984701A834F01CFB98
:1093000030702846236BA26B9A4288BFA36310B0CB
:10931000BDE8F081237C33B91C490BAA04F1080095
:1093200001F0BAF9D5E72046194A0BABFFF750FF19
:10933000CFE7237C23BB2246164904F1080001F045
:10934000ABF9616A204633F0E6FE616A421C2046B2
:1093500033F0AFFE054620B9236B626C1344143B17
:1093600023632046A16A33F042FF2368A062C01A3B
:10937000636CB0FBF3F06062204633F07BFFB6E72E
:1093800000232046044AFFF723FFDAE72D9D00085B
:10939000A99C000875D3030811D3030873B50D46C3
:1093A000D11E4A421C461B7E4A419A4226D1296858
:1093B0002368994222D3636899421FD8114E0DF158
:1093C00007033246FFF75AFEC0B972686B689A42CB
:1093D00014D19DF80730DA1E53425341227E934246
:1093E0000CD1636901336361D4E90323934205D24D
:1093F0002968A26842F8231001332361012002B0DA
:1094000070BD00BF545000202DE9F04F9A468BB03C
:109410009DF85030DFF850B10293DBF810308046F1
:1094200053450D461646C0F09980D146DBF804300E
:109430000193B9F1000F00F08D80D8F83C30012283
:109440005B6907A90198984707A834F0E7F9DBF8AA
:109450000030984240F0858007A834F0EBF90428EA
:10946000074614D107A834F0ECF9019B029A044690
:109470003B44002A3FD1864212D91446361A404650
:10948000019933F0B4FEA9EB04090190D1E7D8F8B3
:109490003C3002225B69019808A9984708A8E2E7D6
:1094A000841B544528BF5446032C03EB0607AAEB44
:1094B000040A4FEA94021CD9D8F83C3029463846B1
:1094C0005B69984724F0030304F003061F441D441E
:1094D000002ED4D0D8F83C3001225B6908A9384668
:1094E00098473246284608A935443BF0ABFB002696
:1094F000C5E72646ECE7074600F003020392034463
:109500002A1804920593049BDD1B059BD81B039B23
:109510009F420FD1002FB2D0D8F83C30012208A9C9
:109520005B6998473A46284608A93BF056FB78B94C
:109530003D44A4E7D8F83C30012208A95B6998476C
:109540000422284608A93BF048FB08B9043FDAE7A3
:109550004FF0360948460BB0BDE8F08F4FF0630975
:10956000F8E74FF06F09F5E7805000202DE9F04152
:109570000F4616469846044688B060B390F83450BB
:10958000FDB1012133F06BFD00210E9BCDE90511EA
:10959000CDE902379DF83C30CDF804808DF81C30C1
:1095A000237C04968BB90D4901AA04F1080001F04F
:1095B00073F8DDE90553E06B002E08BF1D4633F05C
:1095C000E7FE284608B0BDE8F0812046044A01AB1A
:1095D000FFF7FEFDEDE70546F3E700BF3FD30308C5
:1095E0009D9300087FB590F84260044601920DF10A
:1095F0000B030A463046124933F0D2FE012E0546CF
:10960000E36B19D132465B6903A998479DF80B10AB
:10961000039B019A59B19BB243EA024301222846B7
:109620000393E36B03A99B69984704B070BD1B0CBF
:109630001B0492B21343F1E701229B6901A9F3E7EE
:10964000805000202DE9F04F99B00F4609920A6929
:10965000416C0E931439D31DB3FBF1F3013302EBCC
:10966000C302036B04469342C0F00D820023DFF86F
:1096700020940D93E36A48461946079301F090F849
:10968000D7E9033604930E9B022B4ED1CC2E40F02B
:109690008A81099B002B42D03946204633F0D6FE02
:1096A000656C079A6B1E13401490ED1AE36B012250
:1096B0005B6916A97868984716A834F0B3F80028B3
:1096C0000CBF04230823782E06933DD901230025DF
:1096D0004FF0080A05933B6805990E98C9F80030C9
:1096E000C9F8106034F0C0F84FEA9A0310930023D1
:1096F000DDF81CB089F814000B930F9308930C93BA
:10970000616C4A1E0BEA02028B1A002E38D05544B7
:10971000AB4240D8236B5B1A13442363ABE0049B3A
:109720001B68149308230693D0E7656C079A6B1E99
:109730001340782EA5EB030516D8FB7D7BB9099B5A
:10974000002BB3D104230693331DAB4210D9A6B12D
:10975000082DBBD804250023AA460593BBE7099B27
:10976000002BA3D10823EEE7099B002B9ED1D9E75C
:10977000002505954FF0040AADE704250596F9E7A5
:109780005345C7D3B0460BEB0A030393089B002B4A
:1097900018BF032313E0A3EB0A039E42B0460BEB72
:1097A0000A0228BF98469E420392EFD90123D9F8B6
:1097B000102089F81730964271D1C9F804B0089387
:1097C00099F81730002B6CD099F818200899D31C01
:1097D00009EBC3030132C3F804B0A3F808809972FF
:1097E00089F81820B8F1000F14D00E9B022B5BD122
:1097F0000B9B7BB90F9B4344032B0BD9E36B0122DB
:109800009B69039814A998470546002840F03D81BC
:1098100001230B93089B16A80193059B009399F8CD
:1098200014204346396800F071FFE36B58469B698A
:10983000109A16A99847051E0D9B18BF5B46524605
:109840000D9359464346204633F0FEFC236B08F146
:109850000302A3EB0A0322F003029B1AC9F80800D3
:109860002363002D40F011810F9BDDF80CB04344C1
:10987000A6EB08060F935946204633F0B8FC0025A6
:109880008346002E7FF43CAF814A3968936804F127
:109890000800E36252680E9B00F0B0FEDEE0022397
:1098A0008DE7C9F804B09DE7099B002B30D1049BDC
:1098B000B8F1030F43440A9327D9DDE90301E36BB1
:1098C0004FEA98029B6998470546002865D118F031
:1098D00003025FD0049B28F003052B440493039BF1
:1098E0001D444FF0FF33049915A815933BF0AAF9D6
:1098F000E36B28469B69012215A9984705460A9BF8
:109900000493002D86D0039B99E74246039DE8E728
:10991000039B0A9307F120031193FB7D78689BB1A9
:1099200000233D7E0C9AD9B28D4211D9119903F1D1
:10993000010C31F83310914226D9069907EBC30385
:10994000D8690A44104403E00C9B069A1344184457
:10995000E36B01225B6915A99847159B01221393BC
:109960000C9B0A9804330C93E36B13A99B699847EB
:10997000039B0A9A43449B1A042B054607D978B9DE
:10998000134604330A93C8E76346521ACBE70A9B8F
:109990000393B6E70A9B04933CE70A9B0493B2E760
:1099A0000A9B0393AFE7702604F10803039323682F
:1099B000079A606CA2EB030ABAFBF0FA00FB0A30CC
:1099C00033F0EAFFE16A8046204633F010FCA26AD9
:1099D00082424AD0626CD9F80830511E0B40216B8C
:1099E0002568891A0B4423630D9BE0625D1BB5FB60
:1099F000F2F5AA4536D1079BB3EB080A12D0E36B08
:109A00004FEA9A0241469B6998478346E36A079A60
:109A10005344E362236B03989B1A4344236333F05C
:109A20000FFEDA462368616CE06B01FB053133F011
:109A300028FF204633F01EFB204633F01BFC20633A
:109A4000BAF1000F11D03A69616CD31D1439B3FB20
:109A5000F1F3013302EBC3029042A8D2304619B0B1
:109A6000BDE8F08F4FF0000ADCE73A69616CD31D66
:109A70001439B3FBF1F3013302EBC302236B9342BE
:109A8000BFF4F8ADEAE71C26E8E72E468CE700BFF6
:109A9000285000202DE9F3471E4643690446B3428F
:109AA000884617469DF828903DD300258DF807502D
:109AB000204633F0ABFAD4F830A082450AD2236AAC
:109AC000B5EB430F06D2002220460DF10701FFF748
:109AD000BBFB30B39DF80730012B05D10022204697
:109AE0000DF10701FFF7B0FBB9F1030F06D03146C6
:109AF000204633F076FA256B854218D30D4D4FF092
:109B0000FF31284600F04CFE4B46002229462046F5
:109B1000C5E90376C5F8008002B0BDE8F047FFF75D
:109B200091BD0135C4E7622002B0BDE8F0871C207A
:109B3000FAE700BF545000202DE9F04790F842604A
:109B400086B0012E05460391A1EB020715D1B7F5AA
:109B5000807F28BF03264FF0640800244FF6FF796A
:109B6000DFF840A195F84230012B14BF3223642363
:109B70009C420AD35FFA88F415E0B7F5803F34BF02
:109B8000012602264FF03208E7E705AB2246514690
:109B9000284633F039FC95F84230012B059B34D12F
:109BA0004B452DD1E4B295F84230012B0CBF642215
:109BB0003222121BB24217D3012E39D10022012BBF
:109BC00005978DF8132027D1082205A90DF1130060
:109BD00033F0FEFE9DF81330059A42EA0322214637
:109BE0002846FFF7FFFC40B102232E490093284688
:109BF000CC23096803AAFFF74DFF06B0BDE8F08744
:109C0000DBB203B902340134ACE7591CCAD09BB2B1
:109C1000002BF8D10134F6E7102205A90DF113004D
:109C200033F0D6FE9DF81330059A42EA0342D6E798
:109C3000039A012B059223D10823202205A90DF1B7
:109C400013008DF8133033F0C3FE9DF81320120279
:109C500021462846FFF7C6FC95F84230611C012BCF
:109C6000C9B21AD10028BFD12846BDF81420FFF789
:109C7000B9FC0028B8D10234BDF81620E1B2AFE734
:109C80001023202205A90DF113008DF8133033F0B5
:109C90009FFE9DF813201204DAE70028A4D1059A4C
:109CA0009EE700BF80500020032A2DE9F3410646BD
:109CB0000D4617461C4606D1237A012B23D00120DE
:109CC00002B0BDE8F081DFF86080096842460DF11E
:109CD0000703FFF7D3F960600028EDD19DF8072056
:109CE000237A032AE8D0D8F804106A689142E3D1B5
:109CF000012B2969D4F80CC007D172690CEB010360
:109D0000934202D92074207CDAE708316144E16093
:109D10003B46012229463046FFF794FC606000284C
:109D2000CAD00020CCE700BF545000202DE9F341F9
:109D3000089C032A1746266806D1237A012B24D0D3
:109D4000012002B0BDE8F081DFF890803046424645
:109D50000DF10703FFF792F960600028EDD1256847
:109D6000D8F80400A96AD5F844C04840CCF10003F3
:109D70001840227AE1D1012A09D1E268D8F81030DE
:109D800013447269934202D92074207CD9E7286871
:109D9000EB6A1B1A081AB3FBFCF3B0FBFCF083421E
:109DA0000BD1706CF36A421E1340326B121A1344CB
:109DB0002846336333F01BFAE862D8F81020E368D2
:109DC00008321344E36001223B4604492068FFF750
:109DD00039FC60600028B0D00020B2E75450002069
:109DE0002DE9F04F4FF0FF334FF6FF720025044688
:109DF00000F10806C0E909238BB0C3620562056360
:109E000030460F4633F01CFC204633F033F920BBBC
:109E10002046394633F0AEF9204633F02BF920BB0B
:109E20005E200BB0BDE8F08FE26B2368606CD2F867
:109E300014C000FB0530052205A9E04705A833F052
:109E40007BFD012828D12946204633F064F9421CC5
:109E50002946204633F02DF90135E3699D42E3D3CD
:109E6000204633F007F90028D2D000254FF0FF3903
:109E70004FF6FF73CA46A846C4E90853E3699845FC
:109E800014D3A5EB0905012D36D84FF6FF72636A8E
:109E9000934246D16720C4E733F078FD0028DBD039
:109EA0002946204633F037F90246D1E72368E26BB2
:109EB000606C576900FB0830052205A9B84705A862
:109EC00033F03AFD834605A833F00DFD07465846AA
:109ED00033F057FD68B1574538BFC4F82480B94501
:109EE00028BFB946BD4238BF3D46BA46236A013352
:109EF000236208F10108C1E74FF6FF730025636292
:109F0000E3699D42C1D2676C2068E36B052207FBC1
:109F100005005B6905A9984705A833F0E4FC013505
:109F2000EEE7E26B676C2068694607FB0300556942
:109F30000522A847684633F0D6FC626A2368606C45
:109F4000504D00FB023033F027FD4FF0FF33A0628D
:109F5000E3622A466FF00101204605ABFFF78EF859
:109F600000284FD1AD6829462046E56233F05EF8FF
:109F7000206320B92046E16A33F039F9E0622946CE
:109F8000204633F034F90546A36A9D423CD1656909
:109F9000626CE91C143AB1FBF2F14FF0000805EBDA
:109FA000C1050335B5FBF2F5C1460235E3699945B4
:109FB0003CD3A8455AD22046616A33F08BF800277B
:109FC000064604F1400AB84512D8626C2368694617
:109FD00002FB0639E36B05225B69484698476846F1
:109FE00033F081FC534602464946E06B33F0D6FC21
:109FF0003146204633F06EF80137AF420646E2D3D1
:10A0000064200EE7A56AAEE72946204633F00EF835
:10A01000236B2946034407462363204633F0E7F8C1
:10A020000546002FB0D1C4E90B07ADE7636C276884
:10A03000052203FB0977E36B05A95B69384698475E
:10A0400005A833F079FC33F09CFC60B1384633F05E
:10A05000A3FC0146204632F0E9FF636C143B9842B2
:10A0600008BF08F1010809F101099FE7304633F004
:10A07000E7FA002320461946034AFFF7A9F8002013
:10A08000CFE600BF54500020DBD203080023624A11
:10A090002DE9F04117680E460446136018B92125D2
:10A0A0002846BDE8F08190F834500DB30968026885
:10A0B000914240F0A98071684268914240F0A480CA
:10A0C000B1688268914240F09F80F168C268914215
:10A0D00040F09A8031694269914240F09580B169BF
:10A0E000C26B914240F0908072691D468261D7E751
:10A0F00050222946D0F838803AF099FDD6E902126C
:10A10000336804F1080023607368C4F83880636022
:10A11000336963617369A36133F0A4FAB36904F12D
:10A120004000E3639B68984794F8432020B1E561C1
:10A13000002AB4D05B25B3E7656C002DF7D06668C4
:10A14000B6FBF5F3E361002AA9D0B542F2D8226844
:10A15000B2FBF5F105FB1122002A57D105FB136371
:10A16000002B53D1204632F051FFA369043303443E
:10A170009E424DD340F634726369CC3B934249D83A
:10A18000B5F5805FD6D30321204632F068FFD4E9CD
:10A190000001E36B1B6898470546E36B0220DB6810
:10A1A00098471DB1002384F834301DE0394620461D
:10A1B000FFF716FE6428054604D139462046FFF70E
:10A1C0000FFE0546636C143B002DEBD1226A20463E
:10A1D00002FB03F632F01AFFA369043303449E42E4
:10A1E00006D284F834505A25E06B33F0D1F857E7A3
:10A1F0000123D4E90001094A84F83430136801339B
:10A20000136033F0C9FAEFE75D2549E7592547E7C1
:10A210005A2545E75F2543E7B8490020B4490020A7
:10A220002DE9FF410F4690461E46054698B390F82B
:10A23000343093B3B1F5801F31D21A4C022132F081
:10A240000EFF2246394628460DF10F03FEF716FF92
:10A25000024678B1012342460093394633462846E8
:10A26000FFF718FC0446E86B33F092F8204604B080
:10A27000BDE8F0819DF80F30012BEBD12169B1428F
:10A28000E8D10093414633462846FFF7BDF804461F
:10A290000028DFD1E7E72124E8E71124E6E72924B5
:10A2A000E4E700BF805000202DE9FF410C46164630
:10A2B0001F46054680B390F834307BB3B1F5801F5C
:10A2C0002ED2DFF86080012132F0C9FE21464246DD
:10A2D00028460DF10F03FEF7D1FE044670B99DF834
:10A2E0000F30012B11D1D8F81030BB4212D10246E9
:10A2F000009031462846FFF787F80446E86B33F0B4
:10A3000047F8204604B0BDE8F081022B14BF2D248D
:10A310006024F3E76324F1E72124F2E71124F0E756
:10A320002924EEE7805000202DE9F04385B00C464B
:10A3300017461E460546DDF8308098B390F8343055
:10A3400093B3B1F5801F31D2DFF86490012132F070
:10A3500086FE21464A4628460DF10F03FEF78EFE83
:10A36000044688B99DF80F30012B14D1D9F810207C
:10A3700006EB08039A4213D300904346324639460F
:10A380002846FFF741F80446E86B33F001F8204611
:10A3900005B0BDE8F083022B14BF2D246024F3E741
:10A3A0006324F1E72124F2E71124F0E72924EEE702
:10A3B0008050002070B586B00E4605460392A0B3CB
:10A3C00090F834309BB3B1F5801F32D2022132F0C5
:10A3D00046FE31462846184A0DF11703FEF74EFE99
:10A3E000044618B99DF81730032B0ED102233146CD
:10A3F00000932846CC2303AAFFF74CFB0446E86BE6
:10A4000032F0C6FF204606B070BD022B0BD10A49C0
:10A41000284633F01BF8039902468142EFD02846C4
:10A42000FFF78AFBEAE76124E9E72124EAE7112440
:10A43000E8E72924E6E700BF8050002073B50C460A
:10A440001646054630B390F834302BB3B1F5801F73
:10A4500024D2012132F003FE21462846104A0DF194
:10A460000703FEF70BFE044680B99DF80730032B67
:10A470000CD0022B0CD12846094932F0E7FF30609E
:10A48000E86B32F085FF204602B070BD2D24F7E75F
:10A490006124F5E72124F6E71124F4E72924F2E703
:10A4A00080500020F7B50C461646054668B390F874
:10A4B000343063B3B1F5801F2BD2022132F0CFFDCF
:10A4C00021462846144A0DF10703FEF7D7FDC0B90F
:10A4D0009DF80730032B14D0022B14D10E492846C7
:10A4E00032F0B4FF471C024639462846FFF724FBEA
:10A4F000044606B13760E86B32F04AFF204603B0ED
:10A50000F0BD2D24F7E76124F5E72124F6E71124B7
:10A51000F4E72924F2E700BF805000202DE9F34141
:10A520001F4600230C46164605463B6050B390F884
:10A5300034304BB3B1F5801F28D2DFF854800121AD
:10A5400032F08DFD2146424628460DF10703FEF705
:10A5500095FD0446A0B99DF80730032B10D0022BBF
:10A560000AD10123336004233B60E86B32F010FF13
:10A57000204602B0BDE8F081D8F810303060F3E733
:10A580002D24F2E72124F3E71124F1E72924EFE752
:10A590008050002030B50C46054685B028B390F8B1
:10A5A000343023B3B1F5801F23D2022132F057FD9E
:10A5B0000DF10F03214628460F4AFEF75FFD0346C3
:10A5C00088B99DF80F20032A0DD00322214600925E
:10A5D00002462846FFF75EFA0446E86B32F0D8FEE2
:10A5E000204605B030BD2D24F7E72124F8E71124DB
:10A5F000F6E72924F4E700BF805000202DE9F0435E
:10A60000466886B3056898464FF0000CA946AE46EA
:10A6100055F83C400CF1010CC4F31307013401D090
:10A62000B94217D066450EF1080EF1D12F4600242D
:10A6300003E0A64207F1080712D055F83430013480
:10A640000133F6D1C1F3130141EA0851C7E9001201
:10A65000BDE8F08341EA0851CEE90012BDE8F0837D
:10A66000B8F1030F03D101230372BDE8F083002387
:10A6700003E09E4209F10809F5D055F83340013353
:10A68000C4F30754032CF4D1C1F3130343EA085372
:10A69000C9E90032BDE8F0832DE9F0410646406883
:10A6A00082B0C0B10F4690460024336853F834504E
:10A6B00003EBC403C5F30752C5F31301013504F1DD
:10A6C000010406D05B683046CDF80080B84710B171
:10A6D00070688442E9D302B0BDE8F081024B19688A
:10A6E000024B1868FFF7D2BCF8990020189A002096
:10A6F00008B542F05AF8014B186008BDAC50002074
:10A70000014B186842F04CB8AC50002073B50446B9
:10A710002248012A00EAC1119DF8185023F07C401C
:10A7200007D9961E012E28D9073303F07F0319435A
:10A7300008E09DF81C300A43DB0603F0C0531343C6
:10A7400043F060410023C4E900108DF80730B5B133
:10A75000202221460DF1070033F03AF91A220DF1BB
:10A760000700211D33F034F9082063689DF80720A5
:10A7700043EA8263636002B070BD1143E2E71B22CB
:10A780000DF10700214633F023F923689DF80720D7
:10A79000042043EAC2632360EDE700BF80FFFF07A8
:10A7A00038B5094B0D461A68002104463AF03FFAC5
:10A7B00000234FF0FF322383C4E900252361A26008
:10A7C000E382A37638BD00BFECDE04080138C0B2D6
:10A7D00005289ABF014B185C01207047F1DE040880
:10A7E0002DE9F0410746154600240E46596888B009
:10A7F000490A012922464FEA510104F10104F8D81F
:10A80000DC78997824031B88C90201F4006104F400
:10A8100080540C43C3F30A035203234492B24FF013
:10A8200000089C18274B6FEA0444039325F07843F3
:10A83000ED4302A90DF107001B2202938DF807805A
:10A8400033F0C6F89DF80720029B02A943EAC263D1
:10A850000DF107001B2225F07845049302958DF831
:10A86000078033F0B5F89DF80720029B6FEA144487
:10A8700043EAC26305934FF0FF330794069307A999
:10A88000BB69012206F110009847BB6905A904467F
:10A89000012206F108009847BB69404518BF0446ED
:10A8A00004A90122301D98470122404518BF0446E3
:10A8B000BB69304603A99847404508BF204608B009
:10A8C000BDE8F08101009AB2044BD3F88420D2068F
:10A8D000FBD4D3F88400C0F38110704700400050CF
:10A8E00038B5174B0546D3F828310C4603F007035B
:10A8F000013B052B20D8DFE803F003131B0F0B17D8
:10A900003EF012FA052305B1286004B1236038BD7A
:10A910003EF00AFA0623F6E73EF050FA0723F2E784
:10A920003EF042FA0323EEE73EF03EFA0423EAE764
:10A930003EF036FA0223E6E700231846E3E700BFBD
:10A9400000800050002337B50193164B0546D3F81D
:10A9500020320C4603F00703042B21D8DFE803F074
:10A96000030B11161B0001230DB1019A2A6004B1DB
:10A97000236003B030BD002101A8FFF7B1FF12230F
:10A98000F2E73EF01BFA07230190EDE741F02DFFBF
:10A990000A230190E8E73EF059FA09230190E3E722
:10A9A0000023E1E70080005038B5104B0546D3F88E
:10A9B00080300C4603F00303022B0BD0032B0DD089
:10A9C000012B0FD13EF0B6F90E2305B1286004B17A
:10A9D000236038BD3EF0F2F90723F6E73EF0A4F914
:10A9E0000623F2E700231846EFE700BF008000507F
:10A9F00038B5104B0546D3F800310C4603F003037D
:10AA0000022B0BD0032B0DD0012B0FD13EF0CCF934
:10AA1000032305B1286004B1236038BD3EF016FA67
:10AA20000923F6E73EF0C6F90823F2E701230020E8
:10AA3000EFE700BF0080005038B5184B0546D3F84B
:10AA400020010C4600F00700062823D8DFE800F0BC
:10AA5000040A0E16121A1E00012305B1286004B163
:10AA6000236038BD3EF060F90523F6E73EF09CF91F
:10AA70000323F2E73EF0A2F90723EEE73EF090F958
:10AA80000223EAE73EF050F90623E6E73EF08CF9B0
:10AA90000423E2E700231846DFE700BF00800050F0
:10AAA00038B5104B0546D3F840310C4603F003038C
:10AAB000022B0BD0032B0DD0012B0FD141F095FEB3
:10AAC0000A2305B1286004B1236038BD3EF0BEF909
:10AAD0000923F6E741F08CFE0C23F2E70123002066
:10AAE000EFE700BF00800050002337B50193164BFD
:10AAF0000546D3F860320C4603F00703013B032BF5
:10AB00001FD8DFE803F0020E1914002101A8FFF797
:10AB100093FF10230DB1019A2A6004B1236003B0A2
:10AB200030BD002101A8FFF7BBFF1123F2E73EF083
:10AB300045F907230190EDE73EF032F90223019039
:10AB4000E8E70023E6E700BF00800050002337B5A8
:10AB50000193164B0546D3F894320C4603F00703D5
:10AB6000013B032B1FD8DFE803F0020E191400216C
:10AB700001A8FFF761FF10230DB1019A2A6004B10B
:10AB8000236003B030BD002101A8FFF789FF112326
:10AB9000F2E73EF013F907230190EDE73EF000F9EC
:10ABA00002230190E8E70023E6E700BF00800050A1
:10ABB00038B5104B0546D3F860310C4603F003035B
:10ABC000022B0BD0032B0DD0012B0FD141F00DFE2A
:10ABD0000A2305B1286004B1236038BD3EF036F980
:10ABE0000923F6E741F004FE0C23F2E701230020DD
:10ABF000EFE700BF008000502E4B98424AD022D889
:10AC00002D4B984240D014D82C4B984239D00AD8BA
:10AC10002B4B984232D02B4B98422FD02A4B984244
:10AC20002CD000207047294B9842FAD1284B186F3E
:10AC30007047284B98422AD0274B9842F1D1244B99
:10AC4000D3F880007047254B98422BD009D8244B6D
:10AC5000984223D0234B9842E3D11D4BD3F88C006C
:10AC60007047214B984221D003F5740303F510532C
:10AC70009842D6D1164BD3F898007047144B986D74
:10AC80007047134B586E7047114B586F7047104BFD
:10AC9000986F70470E4BD3F8840070470C4BD3F875
:10ACA000880070470A4BD3F890007047084BD3F8E0
:10ACB000940070470048E8010024F400C0CF6A0007
:10ACC00080841E0000093D0040420F00405DC60028
:10ACD0000080E00FC0EA210180BA8C01007E56039B
:10ACE00080D54302006CDC020090D00373B50D46A2
:10ACF0000021114B0191D3F88041064604F0030472
:10AD0000022C13D0032C0CD0012C13D101A8FFF777
:10AD100093FE10240EB1019B336005B12C6002B08C
:10AD200070BD3EF04BF807240190F3E73EF038F891
:10AD30000190EFE70C46EDE70080005038B5104B6E
:10AD40000546D3F840320C4603F00303022B0BD028
:10AD5000032B0DD0012B0FD141F047FD0A2305B184
:10AD6000286004B1236038BD3EF070F80923F6E78F
:10AD700041F03EFD0C23F2E701230020EFE700BF86
:10AD80000080005038B5144B0546D3F800020C463D
:10AD900000F0070004281BD8DFE800F003090D11BC
:10ADA0001500012305B1286004B1236038BD41F0CE
:10ADB0001CFD0A23F6E73EF049F80923F2E741F0CB
:10ADC00017FD0C23EEE73DF0D5FF0F23800AE9E7DE
:10ADD00000231846E6E700BF0080005038B5144B4A
:10ADE0000546D3F808020C4600F0070004281BD8DB
:10ADF000DFE800F003090D111500012305B12860FB
:10AE000004B1236038BD41F0F0FC0A23F6E73EF0C0
:10AE10001DF80923F2E741F0EBFC0C23EEE73DF0CF
:10AE2000A9FF0F23800AE9E700231846E6E700BFE1
:10AE300000800050B0F5207F1FD009D8B0F5007F0A
:10AE400015D003D868B1B0F5C07F0AD000200CE05F
:10AE5000B0F5607FFAD10B4BD3F88000C0F301103E
:10AE600003E0084B186FC0F3033001307047054B07
:10AE7000D3F89000C0F30460F7E7024B186FC0F3FB
:10AE80008020F2E70080005002464FF48030104BE3
:10AE900010B598660020FFF7CDFF504341F67132A0
:10AEA0000C4BDC69DA635A6804F4803422F44012F3
:10AEB00059B90949884294BF002001200005024386
:10AEC0005A600CB10022DA6310BD0449F2E700BFFA
:10AED0000090005000000350005A6202002D310122
:10AEE000430905D0012B0CD0022B084B18BF0023BF
:10AEF00000F01F0039B103F58053012282401A602F
:10AF00007047034BF4E703F50053F6E76880005001
:10AF1000648000501FB50021B0F5807F0446CDE964
:10AF2000001100F0D2803AD85E2833D85E2833D89A
:10AF3000DFE800F0453232323232323232323232EF
:10AF400032323232323232323232323232323232E1
:10AF50003232323245AC45ACBCBCBCBCBCACC64EDB
:10AF60006BDC4EACACAC3232323232323232ACAC60
:10AF7000AC7EE6AC323232323232323232323232BD
:10AF800032BC454545E14E4EEB8D63C13232323223
:10AF9000329E4500802870D0009804B010BDB0F5F6
:10AFA000D06F00F0A38035D8B0F5607F79D01AD883
:10AFB000B0F5007F65D005D8B0F5C07FECD13DF08D
:10AFC000D9FE5CE0B0F5207F60D0B0F5407FE3D1E2
:10AFD0003DF0D0FE02464FF42070FFF72BFFB2FB8E
:10AFE000F0F252085BE0B0F5B06F69D00AD8B0F566
:10AFF000806F5BD0B0F5A06FCED100216846FFF71F
:10B00000A1FCC9E7B0F5C06FC6D100216846FFF7C3
:10B0100047FDC1E7B0F5106F6DD00ED8B0F5086FE1
:10B0200078D0B9D8B0F5E06F6AD0B0F5F06FB3D191
:10B0300000216846FFF7BCFDAEE7B0F5406F3AD09F
:10B0400013D8B0F5206F60D0B0F5286FA4D10021DF
:10B05000324B0391D3F8703203F00303012B02D17A
:10B0600003A8FFF71DFD039B39E0B0F5486F93D1AE
:10B0700000216846FFF76AFD8EE73DF05BFE009019
:10B080008AE73DF057FE0246204604E03DF072FE9E
:10B0900002464FF42070FFF7CDFEB2FBF0F20092B3
:10B0A0007AE701A8FFF780FC019AEDE700216846E6
:10B0B000FFF7C2FC70E700216846FFF711FC6BE761
:10B0C00000216846FFF712FE66E74FF0E023029189
:10B0D0001B695B0705D53DF04DFE0290029B009376
:10B0E0005AE703A902A8FFF7DBFCF7E7002168464F
:10B0F000FFF748FE50E700216846FFF76FFE4BE779
:10B1000000216846FFF71AFE46E700216846FFF770
:10B11000EBFC41E76846FFF76BFC3DE70080005021
:10B1200008B58020FFF7F6FE034B98429EBF4FF410
:10B130008032024B1A6708BD005A620200A000501C
:10B140001FB503460020B3F5807F019000F0C58055
:10B1500065D85D2B56D84C2B07D82D2B48D8232BE0
:10B160002CD8019805B05DF804FB4D3B102BF8D8A6
:10B1700001A252F823F000BFD1B2000863B1000869
:10B1800063B1000863B100087FB2000863B1000832
:10B1900063B100082BB300089DB2000843B2000859
:10B1A00021B3000863B1000863B1000863B100086F
:10B1B00063B1000863B1000835B30008243B092BD4
:10B1C000CFD801A252F823F0D1B20008D1B20008C2
:10B1D000D1B20008D1B20008D1B2000863B10008B2
:10B1E000C7B2000863B100085FB2000807B30008E7
:10B1F0003D2B00F083803E2BB3D1002001A9FFF747
:10B200009DFDAEE7802BACD1504B1B6F03F00703C5
:10B21000013B032BA5D8DFE803F0544D5052B3F5A2
:10B22000F06F6BD020D8B3F5B06F4CD00ED8B3F51B
:10B23000607F71D095D3B3F5806F49D0B3F5A06F1F
:10B240008FD1002001A9FFF77DFB8AE7B3F5D06F0E
:10B2500059D0B3F5E06FD0D0B3F5C06F81D10020E5
:10B2600001A9FFF71DFC7CE7B3F5206F5DD00BD87B
:10B27000B3F5086F4CD0B3F5106F7FF472AF0020B8
:10B2800001A9FFF7ABFD6CE7B3F5406F48D0B3F50C
:10B29000486F4FD0B3F5286F7FF463AF2B4BD3F8D3
:10B2A000703203F00303012B49D0022B0CBF15238E
:10B2B000002300E00523019353E70323FBE7082362
:10B2C000F9E70223F7E7002001A9FFF70FFD48E7A0
:10B2D000002001A9FFF7B0FB43E74FF0E023029005
:10B2E0001B695B0705D53DF045FD0D230393039BCB
:10B2F000E1E703A902A8FFF7D3FBF8E7002001A9C3
:10B30000FFF756FC2DE7002001A9FFF73BFD28E7DA
:10B3100001A9FFF76DFB24E701A9FFF745FB20E733
:10B32000002001A9FFF7DCFA1BE7002001A9FFF7C5
:10B33000DBFB16E7002001A9FFF708FC11E700215D
:10B3400003A8FFF7ADFB1123B5E700BF0080005055
:10B350004FF48032074B0849586E03F580535A6604
:10B360004B6A23F001034B62C3035CBF034B5A6675
:10B37000704700BF0080005000C0075000A0005080
:10B3800038B504468020FFF7DBFE032800F08380F9
:10B390004FF48012524B4FF0A0615A6645F60E02F0
:10B3A000504BC3F88020504A91624FF4803102F52F
:10B3B000805291629A6DD203FCD4996D11F0804154
:10B3C000FBD1D4E90002120542EA0062E07B0243AD
:10B3D000207B42EA0042607B42EA0032A07B42EAE4
:10B3E00080121A619869D4E90452120642EA856211
:10B3F00000F000400243A07EE57E0243207E42EA48
:10B400000042607E42EA00229A611A6AE06922F0F4
:10B410000F0242EA8502354D00283DD11A6294F8A8
:10B420002420996A94F82000D200294042EA401270
:10B430000A4394F8211042EA011242F480329A62DF
:10B440002B49284A936D31EA0303FBD14FF08071F9
:10B45000254881621369A56823F4700343EA055304
:10B4600013614FF00043836194F822300BB9214BF4
:10B47000996294F823303BB94FF480321D4B9A62A5
:10B48000184A936D5B00FCD494F825301BB1154B22
:10B49000194AC3F8802038BD024342F0080202284E
:10B4A0001A6208D119614FF40852996113484FF498
:10B4B0007F4132F0ABFA0B4994F822308A6A94F853
:10B4C00020001B062A4043EA4013134394F824202B
:10B4D00043EAC20394F8232043EA02438B62D3E792
:10B4E000009000500040005A0050005AC7FFFEFE76
:10B4F000030001000060005AF1A7FFFF3440005A2A
:10B50000014B93F90000704778A10020014B18808F
:10B51000704700BF34A100204FF4800208B5184BDB
:10B520005A660223174A5360936813F48033FBD1A1
:10B53000012822D13DF038FC134B984215D003F579
:10B54000122303F5F863984213D0104B00EB8002EE
:10B55000400AB3FBF0F3520A0A49CA620B630123A3
:10B560004B620022074B5A6008BD45F67A13084A21
:10B57000F2E745F61A03074AEEE75362F1E700BF28
:10B58000009000500040025000F049026466666678
:10B59000D8B80500BBCF0500B0F5207F10B50C462C
:10B5A0005DD008D8B0F5007F4ED003D8C0B1B0F55B
:10B5B000C07F15D010BDB0F5607FFBD12C4B4C1E69
:10B5C000D3F8FC202B4912F0807F4FEA041427D1D6
:10B5D000D1F8803023F030032343C1F88030E9E70D
:10B5E00032F023FA32F02FFA4FF48031224B214A05
:10B5F0001967136F013C23F4704343EA0433136764
:10B600003DF0B8FB0446FFF75FF9C0F102012046A8
:10B6100032F013FA00F04AF8BDE81040FFF780BDA1
:10B62000D3F8FC2022F08072C3F8FC20D1F88020EF
:10B6300022F030022243C1F88020D3F8FC2042F0EF
:10B640008072C3F8FC20B5E70A4A4C1ED2F890304D
:10B6500023F0F85343EA0463C2F89030AAE7054A9E
:10B660004C1E136F23F4806343EA84231367A1E71E
:10B6700000ED00E0008000500090005008B501216E
:10B68000022000F095F94FF42070FFF7D3FB054B33
:10B69000187032F0CAF932F0D6F94FF48032024B0A
:10B6A0001A6708BD4F8F00200090005008B54FF476
:10B6B000C070FFF72FFCBDE808400449884294BFE2
:10B6C000012102214FF42070FFF766BF80F0FA02DB
:10B6D00038B504463DF04EFB0546FFF7F5F8C0F1DE
:10B6E0000201284632F0A9F90121002000F0A0F95A
:10B6F0002CB1FFF7DBFFBDE83840FFF711BD034B6E
:10B700004FF420701978FFF747FFF4E74F8F0020C0
:10B710004FF4C02270B50546FFF76EFA314B044670
:10B720005A6603F598335A68012A04D12E494A60B3
:10B730005A689207FCD48020FFF702FD052807D144
:10B7400032F073F932F07FF94FF48032254B1A67EB
:10B75000264B24F040749D4230D0254B9D4230D082
:10B760003DF0E2FA8542064603D90121284600F061
:10B770005FF9204BDA6812F0060FFBD199689C60E4
:10B780009A68624012F4F81F1ED12846FCF7DAFED0
:10B790008020FFF7D5FC05280DD13DF0EBFA0446DB
:10B7A000FFF792F8C0F10201204632F046F9FFF7A8
:10B7B0007DFFFFF7B5FCAE420CD270BD44F00074C3
:10B7C000CEE744F08074CBE780209960FFF7B8FCA7
:10B7D000052805D0BDE870400121002000F028B9FF
:10B7E0003546DAE70090005000E0015040420F007B
:10B7F00080841E0000000150304B314A984251D0E5
:10B8000020D8A3F5B703A3F55863984246D00DD8C6
:10B810002C4B984231D02C4B984239D02B4B4FF4C3
:10B82000002198421DD00023516622E0284B4FF49E
:10B8300000219842F7D1274BD3F8BC30516623F052
:10B84000407316E0244B984230D0244B984231D0BC
:10B85000234B4FF400219842E5D11E4BD3F8C8305A
:10B86000ECE71C4BD3F8A030516623F0407343F053
:10B8700000734FF0B442936070474FF40021154BB2
:10B88000D3F8A030516623F0407343F08073F0E7A3
:10B89000104BD3F8A0304FF40021CFE70D4BD3F875
:10B8A000B830F8E70B4BD3F8C030F4E7094BD3F8C6
:10B8B000CC30F0E7074BD3F8D030ECE7C0EA2101F9
:10B8C0000090005080841E0000093D0040420F009F
:10B8D0000024F4000080E00F0048E801005A6202F2
:10B8E00080BA8C01024A536B0342FCD1704700BFFF
:10B8F00000400950044A4178536F23F4407343EAEF
:10B9000001235367704700BF004000500E4A10B536
:10B910001369044643F0040313613DF0E9FE32F07D
:10B9200097F80A4B5B6E5B0142BF094B094AC3F8AB
:10B93000202430BF32F08DF804F07CFA1CB9BDE849
:10B9400010403DF017BA10BD00ED00E0008000503F
:10B9500000E003500000FF0F0C4A10B513690446C5
:10B9600043F0040313610A4B5B6E5B0142BF094B5A
:10B97000094AC3F820243DF0BBFE30BF04F05AFA58
:10B980001CB9BDE810403DF0F5B910BD00ED00E078
:10B990000080005000E003500000FF0F034A0179CF
:10B9A000D36E23F030030B43D36670470040005042
:10B9B000F8B504461C4BD3F88420D106FBD4D3F849
:10B9C0008430C3F381139C422CD03DF0B3F9012C99
:10B9D000064602D1214632F030F840F0E6FE4FF044
:10B9E0000072124B07465A66204632F035F84FF483
:10B9F00080630D4D621E93402B676B6E9A0103D4DA
:10BA0000D5F884309B060AD5384640F0C9FE022C92
:10BA100008D13046BDE8F840002132F00EB8D5F824
:10BA20008430EAE7F8BD00BF0040005000600050DD
:10BA300010B50C4608B93DF07DF9074B21461B783F
:10BA40003BB1064B984204D80120BDE81040FFF7F7
:10BA5000AFBF0220F9E700BF508F0020005A6202FA
:10BA60000278034B012100201A70FFF7E1BF00BFED
:10BA7000508F00204FF0004238B5244B244C5A66BA
:10BA80004AF6CD33656C014605F00105236428BBF9
:10BA90000120FFF727FF6368DB0715D51D4B5860B2
:10BAA00008461D4B226BD2070CD4984208D10724BC
:10BAB00015B1174B194A1A6439F0E8F9204638BD18
:10BAC0000130EFE79842F2D00024F1E70132236B16
:10BAD00013F0080305D08A42F8D1E8E700220E49A6
